:100000000C94FA010C9417020C9417020C947F20A4
:100010000C9417020C9417020C9417020C941702FC
:100020000C9417020C9417020C94F41B0C94B01B44
:100030000C94F11C0C9417020C9417020C941702E8
:100040000C9417020C9417020C9417020C941702CC
:100050000C9417020C94CD1C0C9417020C941702EC
:100060000C9417020C9417020C9417020C941702AC
:100070000C9417020C9417020C9417020C9417029C
:100080000C9417020C9417020C9417020C9417028C
:100090000C9417020C9417020C9417020C9417027C
:1000A0000C9417020C9417020C94170229001400E8
:1000B0001A00BB5D150017002B0004001600070096
:1000C00009000A00B85D1D001B00060019000500AC
:1000D000000000000000C35DC25D7900B45D130044
:1000E00012000C0018001C00B95D33000F000E0058
:1000F0000D000B0034002D00B35DB25D1000110047
:10010000000000000000C15DC05DBC5D0000540047
:10011000240025002600560022025500210022005E
:10012000230057001F0636001E001F002000370066
:100130000000000000002A0027002E000000000040
:1001400000000000000000000000BD5DBE5DBF5D5E
:10015000BC5D000000000000000000000000000086
:100160000000000000000000C05D000000574300D8
:100170004000410042008000000044003D003E007D
:100180003F008100000045003A003B003C007F003A
:100190000000000000002A002C0000000000000009
:1001A00000000000000000000000BD5DBE5DBF5DFE
:1001B000BC5D000000000000000000000000000026
:1001C000000000000000C15D0000000000570000BA
:1001D00000000000000000003900BD5DBE5DBF5D95
:1001E000BC5D0000000000000000000000000000F6
:1001F0000000000000000000C25D000000000000E0
:100200004F04520050044B0000004F084F005100B3
:1002100050005008000000001B08060819084E0096
:1002200000000000000028002C00E1000000000099
:1002300000001F06000000000000BD5DBE5DBF5D48
:10024000BC5D000000000000000000000000000095
:10025000000000000000C35D000000003100240227
:10026000310230002F002102B75DB65DBA5D270272
:100270002602200235023702360230022F02230204
:1002800000000000000028002C0000000501090209
:10029000A10185020901A10005091901290815001C
:1002A0002501950875018102050109300931158183
:1002B000257F95027508810609381581257F9501EE
:1002C00075088106050C0A38021581257F95017590
:1002D000088106C0C005010980A101850319012A12
:1002E000B700150126B700950175108100C0050CF7
:1002F0000901A101850419012AA002150126A00205
:10030000950175108100C005010906A1018506054A
:100310000719E029E71500250195087501810205F7
:1003200007190029EF1500250195F07501810205D7
:10033000081901290595057501910295017503912B
:1003400001C005010906A101050719E029E715000B
:100350002501950875018102950175088101050740
:10036000190029FF150026FF009506750881000574
:1003700008190129059505750191029501750391EB
:1003800001C009023B00020100A0FA0904000001BB
:10039000030101000921110100012240000705812C
:1003A00003080001090401000103000000092111F4
:1003B00001000122B600070582032000011201009E
:1003C0000200000008534601000100010200010C78
:1003D0000343006F0072006E0065000000100366AA
:1003E000006F006F007300740061006E0000000475
:1003F0000309040011241FBECFEFDAE0DEBFCDBF3A
:1004000011E0A0E0B1E0E0EEF4E402C005900D924E
:10041000A237B107D9F722E0A2E7B1E001C01D92EF
:10042000AB3AB207E1F70E94181D0C9458220C94C5
:100430000000FC01AC014C5F5F4F8FEF91E3219115
:10044000822728E030E087FF09C0880F89272150E4
:100450003109C9F7E417F50791F70895880FF7CF29
:10046000E8EDF0E080818E7F80831092E2001092B0
:10047000DA001092E100A0EEB0E08C9181608C93E4
:1004800080818F77808319BCA7EDB0E08C918E7F3F
:100490008C9380818F7E80831092790208952091C1
:1004A000E4003091E50095E6A9012091EC00822F4F
:1004B000817020FF06C08091E80080FF06C080E0C8
:1004C00008952091E80022FD1AC080919E028823A1
:1004D00089F0853089F08091EB0085FD0FC0209177
:1004E000E4003091E50042175307F9F29150E1F62C
:1004F00084E0089582E0089583E0089581E00895FE
:10050000EF92FF920F931F93CF937C018B010E9478
:100510004F02C82F811117C08091E80085FD0BC0E4
:100520008091E8008E778093E8000E944F02882334
:1005300099F3C82F08C0F70181917F018093F100E2
:100540000150110949F78C2FCF911F910F91FF9006
:10055000EF9008958091A00287FF13C08091E8007A
:1005600082FF06C08091E8008B778093E80004C08A
:1005700080919E028111F2CF089580919E0288237E
:10058000D9F38091E80080FFF8CF8091E8008E7762
:10059000ECCF982F9093E900242F762F50E0891705
:1005A00031F07091EC002091ED005091F00021FDB0
:1005B00007C09F5F973071F78093E90081E008954D
:1005C0003091EB003E7F3093EB003091ED003D7FAA
:1005D0003093ED003091EB0031603093EB0070937D
:1005E000EC002093ED005093F0002091EE0027FDE9
:1005F000E0CF80E00895B0E0A0E0E1E0F3E00C940B
:10060000A521C8EDD0E088818F7E8883E7EDF0E0FA
:1006100080818160808384E082BF81E08093790261
:1006200088818E7F888302EE10E0F801108210929C
:10063000DA0081EEC82ED12CF601108288818F77E6
:10064000888388818068888388818F7D888319BCAE
:1006500010929E0210929F0210929D0210929C0294
:1006600090EEE92EF12CF70180818B7F80838881C9
:100670008160888342E060E080E00E94C902F60168
:1006800080818E7F8083F80180818160808380817A
:1006900088608083F70180818E7F8083888180617C
:1006A0008883CDB7DEB7E8E00C94C121FC018091CE
:1006B000A6029091A70286179707A0F06115710511
:1006C00029F49091E8009E779093E80090E06115FE
:1006D000710551F4911108C08091E80082FF34C087
:1006E00080E00895BC01F2CF80919E028823C1F181
:1006F0008530C1F18091E80083FD30C08091E80031
:1007000082FDEACF8091E80080FFE1CF8091F30085
:100710002091F200382F6115710519F0283031054C
:1007200058F091E02830310509F090E02091E80080
:100730002E772093E800CBCF81918093F100615018
:1007400071092F5F3F4FE7CF80919E02882341F0D0
:10075000853041F08091E80083FFBECF81E00895AD
:1007600082E0089583E00895089580917B020895C2
:1007700087E797E7909301088093000888E19AE063
:100780000FB6F894A895809360000FBE9093600018
:10079000FFCF9C014FB7F894809170029091710245
:1007A000A0917202B09173024FBF821B930B089508
:1007B0002FB7F8946091700270917102809172026B
:1007C000909173022FBF08952FB7F8948091700213
:1007D00090917102A0917202B09173022FBF08959F
:1007E000209133012223C9F02091740227FF15C004
:1007F000E62FE695E695E695EE31D8F4E80FF92F69
:10080000F11D677021E030E001C0220F6A95EAF720
:1008100020958281282322830895FC013296089630
:100820002191621303C0DF0111971C92E817F907A9
:10083000B9F70895209133012223C1F02091740269
:1008400027FF14C0E62FE695E695E695EE31F8F41D
:10085000E80FF92FF11D677021E030E001C0220F91
:100860006A95EAF78281822B82830895FC01329691
:100870002FEF30E04191641751F02F3F19F44111EF
:1008800001C0232F3F5F3630A9F72F3F09F40895A9
:10089000820F911D27FD9A95FC0162830895209196
:1008A0006D0230916E022817390771F090936E0235
:1008B00080936D02E0916B02F0916C02309721F011
:1008C0000084F185E02D0995089520916902309109
:1008D0006A022817390771F090936A0280936902BF
:1008E000E0916B02F0916C02309721F00680F78165
:1008F000E02D099508950E94E4039C019091610206
:1009000080916202982B21F030935E0220935D0269
:100910009091630280916402982B21F030935C02E5
:1009200020935B02E0916B02F0916C02309749F0EA
:1009300082E080935F020480F581E02D8FE592E0F4
:1009400009950895409161028D3E59F480916202AB
:1009500087FF0DC01092620241110BC01092590224
:1009600008C08E3E81F48091620218169CF34423E5
:1009700081F08091630290916402892B09F05AC042
:100980001092580208958F3E49F447FFF0CF10921D
:100990006102809162028111ECCFE0CF803F19F4B7
:1009A0001416ACF3E4CF90916302893F29F4191631
:1009B000F4F610926302DBCF8A3F19F497FFD7CF8A
:1009C000F8CF909164028B3F29F497FFD0CF10921B
:1009D0006402CDCF8C3F19F41916CCF3C8CF9FE039
:1009E000980F983090F4815F990B21E030E0B901C5
:1009F00002C0660F771F8A95E2F7CB018095909130
:100A00006002892380936002B2CF8D3F31F48091E0
:100A10005A028E7F80935A02AACF8E3F21F4809192
:100A20005A028D7FF7CF8F3F09F0A1CF80915A02F4
:100A30008B7FF0CF089580915A0280FD16C081FD12
:100A400016C082FD16C0809158028823A1F088321A
:100A500080F428E0829FC001112468E270E00E94C7
:100A6000D221862F672B39F0089582E0089584E023
:100A7000089588E0089581E0089580915A0280FDEC
:100A800014C081FD14C082FD16C0809159028823D4
:100A900081F08E3180F420E5829FC00111246EE147
:100AA00070E00E94D221862F089584E1089588E2A3
:100AB000089588E0089580E508958D3E31F40E9400
:100AC0003D0581958093620208958E3E19F40E943F
:100AD0003D05F8CF8F3E31F40E943D05819580930E
:100AE00061020895803F19F40E943D05F8CF893FC7
:100AF00029F40E941B058093630208958A3F21F424
:100B00000E941B058195F7CF8B3F31F40E941B0596
:100B100081958093640208958C3F19F40E941B050F
:100B2000F8CF9FE0980F983070F4815F990B21E027
:100B300030E001C0220F8A95EAF780916002822B93
:100B40008093600208958D3F31F480915A02816054
:100B500080935A0208958E3F21F480915A02826058
:100B6000F7CF8F3FB9F780915A028460F1CF80E0D0
:100B70000895F894E82FE295EF70F0E031A1282F66
:100B80002F7081E090E001C0880F2A95EAF7982F36
:100B90009095932391A392A1892B82A37894089591
:100BA0009091740292FF06C0282F28712830F9F422
:100BB000877F846093FF06C0282F28712831F1F4C5
:100BC000877E84612091750220FF06C0382F38711E
:100BD0003830D9F4877F816021FF06C0282F287123
:100BE0002831D1F4877E816194FD877E0895282F76
:100BF00024712430F9F68B7F8860DCCF282F247194
:100C0000243101F78B7E8861DDCF382F317131308F
:100C100019F78E7F8860E0CF282F2171213121F7CD
:100C20008E7E8861E1CF972F7830A8F4663098F4F3
:100C300070E026E0929F600D711D1124FB0190E38E
:100C4000899FE00DF11D1124EE0FFF1FE455FF4FAA
:100C500085919491089580E090E00895CF93DF937B
:100C6000EC0182389105B1F108F040C08133910563
:100C700009F49DC048F58932910509F48DC08A9721
:100C800009F49CC0C11521E5D20708F0C3C0C11505
:100C900030E5D30708F01EC1C83ED10508F0A3C057
:100CA000C03ED10588F5C83AD10508F08EC0C53AD6
:100CB000D10508F007C1C130D10531F1209721F1EC
:100CC000C430D10508F545C08533910509F45FC0EE
:100CD000C997C1F680917402837009F043C1809175
:100CE000750283FF11C0C9E2D0E00EC0833E9105BA
:100CF00099F170F4803E910501F1823E910511F663
:100D00008091740282FD21C0CE01DF91CF910895C0
:100D1000863E910561F1873E910571F1843E910512
:100D200009F0B0CF8091750281FFEECF80917402FF
:100D3000C7EED0E084FD0DC0E7CF8091740280FD46
:100D400033C09091750290FFDFCFC3EED0E084FFF7
:100D5000DBCFD0E0C0E0D8CF8091740282FDFFC02D
:100D60009091750290FDFEC084FFCECFF2CF8091AE
:100D7000740283FDDDCFC8CF8091740283FDF5C07E
:100D80009091750291FFF0CFC4EED0E0BDCF80917D
:100D9000740285FFB9CFA7CF8091740285FDE8C0AA
:100DA0008091750283FFB0CFC9E3D0E0ADCF8091D1
:100DB000740286FFA9CFCAE2D0E0A6CF8091740268
:100DC00086FFA2CFC1E3D0E09FCFCF3BD10508F68D
:100DD000C85AD0E0CC0FDD1FC95CDE4F0990D88126
:100DE000C02DD46491CFC11540E2D40758F4C11589
:100DF00081E0D80708F088CFCD3ED10508F4A9CF0F
:100E0000D06582CFC11520E4D20708F4A2CFDF70ED
:100E1000D06A7ACFC11535E5D30718F5C11544E579
:100E2000D40708F084C0C11583E5D80708F06BC06B
:100E3000C11522E5D20708F461C0CE01837099275D
:100E400021E030E002C0220F331F8A95E2F7C695F9
:100E5000C69580E2C89FE0011124C22BD32BDC6829
:100E600053CFC11539E5D307A8F4C11548E5D40718
:100E700008F062C0C11586E5D80708F06ACF8C2F4C
:100E80000E94D005C82FD0E0DC2FCC27CC27DF7103
:100E9000D0623ACFC1152AE5D20708F452C0CE017C
:100EA00090568115904208F054CF8D2F8F710E947B
:100EB000D00590E0982F882788279F719C012C2BC4
:100EC000E901E6CFC55AD0E0CC5CDE4FC881D0E066
:100ED000D0641ACFCE018370992721E030E002C0A0
:100EE000220F331F8A95E2F7C695C69540E2C49F4C
:100EF000E0011124C22BD32BDD6806CFDC2FCC27D9
:100F0000C16FD06A01CFCE018370992721E030E014
:100F100002C0220F331F8A95E2F7C695C69540E2BC
:100F2000C49FE0011124C22BD32BDA68EDCEDC2F55
:100F3000CC27C46FD06AE8CEDC2FCC27C06FD06A34
:100F4000E3CE8C2F8F700E94D00534E0D695C795E4
:100F50003A95E1F7CF709C2FEC01D069D5CEC2EE67
:100F6000D0E0D2CEC0EED0E0CFCEC6EED0E0CCCE38
:100F7000C5E3D0E0C9CE80910E02811110920E021D
:100F80000895809590916502982390936502089545
:100F900080959091660298239093660208958091BF
:100FA000EC019091BB01981301C008958F5F877089
:100FB000FACFB0E0A0E0EFEDF7E00C94A4217C01C3
:100FC000009140021091410280910F029091100215
:100FD000082B192BCFE0D0E0CC24C394D12CBC2E0D
:100FE000C6010C2E02C0880F991F0A94E2F78023D5
:100FF0009123892B49F4219790F7B12C8B2DCDB7F4
:10100000DEB7E9E00C94C021B7018C2F0E941306D3
:101010000E942E06019779F3F1CFCF93DF93EC0175
:101020000E94D907BE010E9413060E942E06DF917E
:10103000CF910895983078F5863068F5E82FF0E084
:1010400086E0989FE00DF11D11249E2F977083E09C
:10105000F695E7958A95E1F7EE0FFF1FEE0FFF1F5C
:10106000E356FE4F50E040E080E0219130E0092E51
:1010700002C0369527950A94E2F721703327042E93
:1010800001C0220F0A94EAF7822B4F5F5F4F443072
:10109000510559F7089580E00895983098F5863005
:1010A00088F5E82FF0E086E0989FE00DF11D11240F
:1010B0008E2F877041E001C0440F8A95EAF783E0E4
:1010C000F695E7958A95E1F7EE0FFF1FEE0FFF1FEC
:1010D000E356FE4F30E020E070E05191DF011197C0
:1010E000CB01022E02C0969587950A94E2F7817093
:1010F00081958527842385278C932F5F3F4F24304C
:10110000310559F70895FC0183819481892B29F0D9
:101110008081918189238F3F51F480E00895843F3D
:10112000E1F717C0883EA8F0813FB9F712C080816F
:1011300091810E940D0892959F70963099F358F412
:10114000925F9F70923048F7803F19F040F7883ED9
:1011500020F781E008959A5FF4CF9C019A9581155C
:101160009F4138F482E031FF80E032FF03C08460A9
:10117000089580E0089580937602709378026093DA
:10118000770280919E02843001F582E08093E9002D
:101190008FEF9091E800815095FD06C095ED9A95EE
:1011A000F1F700008111F5CF8091E80085FF0DC0B7
:1011B00050E040E063E070E086E792E00E94800249
:1011C0008091E8008E778093E8000895BC0184E068
:1011D0000E94BB080895BC0183E00E94BB080895EB
:1011E0009C0182E08093E9009FEF8091E80091509C
:1011F00085FD06C085ED8A95F1F700009111F5CFC8
:101200008091E80085FF0CC050E040E066E070E0AF
:10121000C9010E9480028091E8008E778093E800E7
:101220000895CF93DF93EC01809133018823B1F1CE
:101230008091740287FF32C060E282E08093E9000F
:101240008FEF9091E800815095FD06C095ED9A953D
:10125000F1F700008111F5CF8091E80085FF1BC0F8
:101260008091330170E050E040E0811104C050E013
:1012700040E068E070E0CE010E9480028091E800CA
:101280008E778093E80080E2FE01ACE7B2E0019047
:101290000D928A95E1F7DF91CF91089568E081E0A2
:1012A000CDCFB0E0A0E0E7E5F9E00C94A3217C010C
:1012B0005B016A018091310201E010E08A3010F494
:1012C0000AE010E0C1E0D0E0B501C701F6010995E0
:1012D000811104C021960C171D072CF4CDB7DEB781
:1012E000EAE00C94BF21CC9F9001CD9F300D300DD2
:1012F000112490E080E045E34A95F1F70000019663
:1013000082179307C1F7E0CF80911B02811110C0B3
:101310008091D80080618093D8008AE18A95F1F7A6
:1013200000C08091D90080FF0AC081E080931B0239
:1013300081E090911B02913009F080E0089582E0F5
:1013400080931B020E94300210929E02F1CF0E94F5
:101350008409882359F0E0916B02F0916C02309778
:1013600029F00190F081E02D0995089580E008951D
:101370008091660290916502892B8093740190910F
:101380000E029923A1F0892B80937401809133017F
:101390008823E1F18091740287FF38C08EE1E6E78F
:1013A000F1E090E08150A0F591110E94BB0740E26E
:1013B00050E06EEE71E084E791E00E944222892BBA
:1013C00021F180E2E4E7F1E0AEEEB1E001900D92B0
:1013D0008A95E1F7E0916B02F0916C023097A9F0E9
:1013E00080913301882359F08091740287FF07C0F0
:1013F000809174018093750186E08093740102806E
:10140000F381E02D84E791E00995089586E0C7CF48
:101410002191222339F29F5FC5CFCF93DF93EC0157
:10142000EA85FB85309719F06C857D8509958B8160
:101430000E94C1078C810E94C8070E94B80986E0FB
:10144000FE0111928A95E9F7DF91CF910895CF932C
:10145000DF93EC018D8181FD18C082608D838091C6
:1014600065029B81892B80936502809166029C8135
:10147000892B809366020E94B809E885F985309728
:1014800021F06C857D85CE0109951092680210923D
:1014900067028D8180FD03C0CE010E940D0ADF919D
:1014A000CF91089590E080E00E94650490E080E094
:1014B0000E944F04109265020E94B80986E0EFE591
:1014C000F2E0DF011D928A95E9F71092590210921D
:1014D000580210925A020E947B0408959093410290
:1014E000809340020E94520A089521E030E002C039
:1014F000220F331F8A95E2F72095309580914002A4
:1015000090914102822393230E946E0A0895909144
:10151000ED01809589238093ED01282F277091F4A8
:10152000282F082E000C330B9217130659F09091B8
:10153000750292FF07C08595859585950E94750A6D
:101540001092ED01089521E030E002C0220F331F18
:101550008A95E2F78091400290914102822B932B71
:101560000E946E0A08959093100280930F020E94C9
:10157000520A0895882321F00E94C1070E94B809E9
:101580000895882339F090916502982B9093650215
:101590000E94B8090895882321F00E94C8070E947C
:1015A000B8090895882339F090916602982B90939A
:1015B00066020E94B8090895882391F19CEF980F64
:1015C000913A40F4682F84E791E00E94F0030E9472
:1015D000B809089590E2980F983050F4877091E020
:1015E00001C0990F8A95EAF7892F0E94C807EFCFAB
:1015F0009BE5980F933028F490E080E00E9465040A
:10160000089598E5980F973128F490E080E00E94C3
:101610004F0408958D3E20F00E94A2040E947B0496
:101620000895CF93DF93EC010E94DC0ACE010E9463
:10163000AD080E94BA0ADF91CF910895CF93C82FC9
:101640008823D9F18CEF8C0F813AC8F58091330152
:10165000882311F18091740287FF1EC0EC2FE6955C
:10166000E695E695F0E0EC58FE4F828190E04C2F35
:10167000477021E030E002C0220F331F4A95E2F7A5
:1016800082239323892B91F06C2F84E791E00E94B1
:10169000F0030E94B8090AC0E6E7F1E08CE791E0A8
:1016A0002191C21789F38E179F07D1F76C2F84E71A
:1016B00091E00E941A040E94B809CF91089580E237
:1016C0008C0F883068F4C77021E030E001C0220F31
:1016D000CA95EAF780916602822B80936602EBCF6F
:1016E000EBE5EC0FE33040F4F0E0EC5CFE4F808182
:1016F00090E00E946504E1CFE8E5EC0FE73150F49B
:10170000F0E0EE0FFF1FE95CFE4F808191810E94A7
:101710004F04D3CFCD3E88F28C2F0E945D050E94EE
:101720007B04CBCF1F93CF93DF93182FEB010E9445
:101730001E0B209739F4812F0E94DC0ADF91CF9194
:101740001F9108958FE99FE00197F1F700C0000015
:101750002197EFCF0F931F93CF93DF93C62FD42FF3
:10176000022FFC0182818823A9F06093AA020E94C3
:10177000E4039093A9028093A802C77081E001C09E
:10178000880FCA95EAF70E94D20ADF91CF911F9184
:101790000F9108958091AA02681334C08091A80225
:1017A0009091A9020E94C903883C910558F510E266
:1017B0001D0FCD17B9F080E28C0F883040F4C77050
:1017C00081E001C0880FCA95EAF70E94CB0A183061
:1017D00048F481E09D2F977001C0880F9A95EAF731
:1017E0000E94D20A70E060E0802F0E94920B1830B5
:1017F00060F6D77081E001C0880FDA95EAF70E94A1
:10180000CB0AC3CFC77081E001C0880FCA95EAF741
:10181000F6CFCF93C82F0E94AD080E94C10A8C2F2B
:101820000E941E0BCF9108950F931F93CF93DF93C8
:101830008C01D0E0C0E0C99711F4C0E5D0E0C80148
:101840000E94090C209741F4C8010E94110BDF91FE
:10185000CF911F910F9108958FE99FE00197F1F7C4
:1018600000C000002197EECFB0E0A0E0EAE3FCE08A
:101870000C94A521EC01862F6A0102171307B9F415
:10188000F7019281992329F00E94A30A82E08883BC
:1018900009C00E94750A8881823019F4C6010E942D
:1018A000140C1882CDB7DEB7E8E00C94C121888112
:1018B0008230C1F783E0EBCFFF920F931F93CF935A
:1018C000DF93EC018B01442309F44CC08091660244
:1018D000982F927209F442C0282F2270F22ED82F2E
:1018E000D0720E94A70981FF0AC0C8018B7F88308F
:1018F000944091F181E0083194E0190709F080E00B
:10190000C82FC170FF2019F082E00E94CB0ADD23AE
:1019100019F080E20E94CB0ACC2329F060E570E048
:1019200089E30E94920BC8010E94090CCC2329F084
:1019300060E570E089E30E94920BFF2019F082E0DD
:101940000E94D20ADD2319F080E20E94D20ACDB7AC
:10195000DEB7E5E00C94C42181E0D2CFCE010E9435
:10196000090CF5CFCB010E94110BCE010E94110B87
:10197000EECF0F931F93CF93DF93EC01862FBA0125
:10198000F801528126173707A9F49881552339F0B9
:10199000911102C00E941E0B82E0888304C0923025
:1019A00039F0933079F0DF91CF911F910F91089525
:1019B00081E0F3CF552351F029323105A1F7988109
:1019C000992389F318820E94DC0AEDCF213E31056C
:1019D00051F350F42932310531F39881913091F36C
:1019E000923009F783E0D9CF2C5B3D452930310592
:1019F000A0F7D9CFCF9384E090E00E940022C82FB7
:101A000082E290E00E940022982F8C2FCF910895BF
:101A10001092660280913301E6E7F1E0882361F0DD
:101A20008091740287FF08C08EE1DF011D928A95C4
:101A3000E9F70E94520A089586E0F7CFAAE2B0E0E3
:101A4000E4E2FDE00C94AA2180EA92E02091F1000A
:101A5000FC012193CF01F2E0883A9F07B9F780910A
:101A6000A102833009F470C0B8F4813009F447C092
:101A7000823009F4B1C08091E80083FF7EC280917A
:101A8000A0029091A1029A3008F077C2E92FF0E00D
:101A9000E65AFD4D0C94E6218A3009F48CC08B3057
:101AA00009F46FC0893039F78091A002813219F7AB
:101AB0008091A4029091A5020297E8F68091E80037
:101AC000877F8093E8008091E80082FF38C0909182
:101AD000F3008091F200029731F48091F10081309F
:101AE00011F0863021F48091F10080937B02809187
:101AF000E8008B778093E8000E94AA02BCCF809117
:101B0000A002813A09F0B7CF8091E800877F8093E7
:101B1000E8008091A4029091A502892B61F460E213
:101B20008CE792E070E00E9456038091E8008B778A
:101B30008093E800A0CF60E090E080E0F3CF809158
:101B40009E028111C0CF97CF8091A002813A09F007
:101B500092CF8091A4029091A502892B09F08BCF9E
:101B60008091E800877F8093E8008091E80080FF03
:101B7000FCCF809133018093F1008091E8008E7753
:101B8000B9CF8091A002813209F075CF8091A40273
:101B90009091A502892B09F06ECF8091E800877F94
:101BA0008093E8000E94AA028091A20280933301F0
:101BB0000E94080D60CF8091A002813209F05BCFB6
:101BC0008091E800877F8093E8000E94AA028091BC
:101BD000A30280937A024FCF8091A002813A09F04C
:101BE0004ACF8091E800877F8093E8008091E800E9
:101BF00080FFFCCF80917A02BECF803899F0823886
:101C000009F0BBC18091A4028F70873008F0B5C184
:101C10008093E9008091EB0085FB882780F9109282
:101C2000E90006C080919C0290919D029111826012
:101C30009091E800977F9093E8008093F1001092D4
:101C4000F1008091E8008E7794C1882309F482C165
:101C5000823009F092C18091A202811185C18091E8
:101C6000A4028F702FEF280F263008F086C18093D2
:101C7000E9002091EB0020FF77C1933031F480918F
:101C8000EB0080628093EB006FC19091EB0090615C
:101C90009093EB0021E030E001C0220F8A95EAF733
:101CA0002093EA001092EA008091EB008860EACF6E
:101CB000811163C11091A2021F778091E3008078A7
:101CC000812B8093E3008091E800877F8093E80078
:101CD0000E94AA028091E80080FFFCCF8091E3007F
:101CE00080688093E30082E0111183E080939E027C
:101CF00044C18058823008F040C18091A202909186
:101D0000A3028C3D23E09207A1F583E08A838AE257
:101D100089834FB7F894DE01139620E03EE051E24C
:101D2000E32FF0E050935700E49120FF03C0E295C9
:101D3000EF703F5FEF708E2F90E0EA30C0F0C796F3
:101D40008D939D932F5F243159F74FBF8091E80009
:101D5000877F8093E8006AE270E0CE0101960E94DE
:101D600056038091E8008B778093E80006C1C09607
:101D7000E7CF4091A4025091A502292F33272330A9
:101D8000310509F444C078F52130310509F46FC0FC
:101D90008BE390E0E2E8F3E02230310509F0EDC09A
:101DA0002091E800277F2093E8002091A60230913F
:101DB000A7028217930708F49C0140E02115310522
:101DC00009F064C0411162C08091E80082FDC9CF72
:101DD00080919E02882329F2853019F28091E800D3
:101DE00083FFF2CFBECF21323105A9F12232310576
:101DF00009F0C3C04115510509F443C041305105F4
:101E000009F0BBC086EB90E0ECE8F2E0C9CF99277F
:101E100081309105C1F0009759F0029709F0ADC0EB
:101E2000EFECF3E0E4918E2F90E0EFECF3E007C0ED
:101E3000EFEEF3E0E4918E2F90E0EFEEF3E0009709
:101E400009F49BC0ADCFEDEDF3E0E4918E2F90E06F
:101E5000EDEDF3E0F4CF4115510571F0413051053E
:101E600009F08BC089E090E0EDEAF3E099CF82E1E0
:101E700090E0EDEBF3E094CF89E090E0E4E9F3E06B
:101E80008FCF80E490E0E2E4F3E08ACF80919E027D
:101E9000882309F466CF853009F463CF8091E80088
:101EA00083FD5FCF8091E80082FD8ECF8091E800B6
:101EB00080FF84CF9091F3008091F20021153105CD
:101EC00019F08830910550F041E0089709F040E0A2
:101ED0008091E8008E778093E80070CF4491409322
:101EE000F1003196215031090196E8CF803809F090
:101EF00044C08091E800877F8093E80080919F0232
:101F00008093F1009ECE811138C01091A202123050
:101F1000A0F58091E800877F8093E80010939F02EE
:101F20000E94AA02112311F084E005C08091E30011
:101F300087FDFACF81E080939E0242E061EC81E070
:101F40000E94C90242E261EC82E00E94C9028091D3
:101F50009E0213C08091A202813079F481E0933017
:101F600009F080E080939D021092E9008091E800E2
:101F7000877F8093E8000E94AA028091E80083FF97
:101F80000AC08091E800877F8093E8008091EB0091
:101F900080628093EB00AA96E3E00C94C6210E9435
:101FA000080D2FEF84E39CE0215080409040E1F742
:101FB00000C0000088E19AE00FB6F894A8958093DD
:101FC00060000FBE90936000FFCFFC0182818530DE
:101FD00069F40E94080DFFEF24E38CE0F1502040EB
:101FE0008040E1F700C000000E94B8030895A4E01B
:101FF000B0E0EDEFFFE00C94A92140912D0250914B
:102000002E0260912F02709130022FB7F8948091C8
:10201000700290917102A0917202B09173022FBF71
:10202000841B950BA60BB70B11E084369105A10517
:10203000B10590F10E948409882399F10E94D80388
:102040006E5F7F4F8F4F9F4F69837A838B839C8313
:1020500080911101909112018C5D9D4F4091100172
:1020600050E04530510510F044E050E0BE016F5F94
:102070007F4F0E944F2282E090E00E942521182F7E
:10208000882351F00E94D80360932D0270932E0292
:1020900080932F0290933002812F2496E4E00C94D9
:1020A000C5210E94D8030091320210913302209181
:1020B000340230913502600F711F821F931FC0CF11
:1020C000EF92FF921F93CF93DF9300D000D00F9237
:1020D000CDB7DEB77B0190E080E00E942521182F6C
:1020E000882309F487C04091030150E04115510550
:1020F00011F041E050E060910401709105016C5DC8
:102100007D4FCE0105960E944F22409120025091B2
:10211000210260912202709123022FB7F8948091DE
:10212000700290917102A0917202B09173022FBF60
:10213000841B950BA60BB70B84369105A105B10541
:1021400040F485E292E00E9419029D81891709F40A
:1021500051C081E090E00E94252181111AC010E059
:1021600080911C0290911D02A0911E02B0911F024D
:10217000F70180839183A283B383812F0F900F9007
:102180000F900F900F90DF91CF911F91FF90EF90E4
:10219000089540910B0150E04530510510F044E0A6
:1021A00050E060910C0170910D016C5D7D4FCE018E
:1021B00001960E944F2285E292E00E9419029D81C1
:1021C0008913CDCF0E94D80360932002709321021F
:1021D000809322029093230289819A81AB81BC81F2
:1021E00080931C0290931D02A0931E02B0931F02C5
:1021F00011E0B6CF8091250290912602A09127028E
:10220000B091280289839A83AB83BC831111E4CFF8
:10221000A7CFACE0B0E0EFE0F1E10C94A0218E019B
:102220000F5F1F4F88E0D8011D928A95E9F787E676
:10223000C82E81E0D82EF12CE12CAA24A394B12C35
:1022400021E7822E21E0922EF60181916F018F3FCE
:1022500009F442C0F894E82FE295EF70F0E021A174
:102260008F70A50102C0440F551F8A95E2F7CA017D
:10227000922F982B91A392A18095892382A3789481
:1022800000C0EBE6F1E0712C31E021912F3F09F421
:102290006BC0A22FA295AF70B0E090968C9190E0A9
:1022A0002F7002C0959587952A95E2F780FD5CC056
:1022B000832F782A330F8E169F0639F7F601319750
:1022C00080818F3F11F00E94B90550EA5A95F1F7CD
:1022D000F801EE0DFF1D70828FEFE81AF80AA4E0F6
:1022E000EA16F10409F0B0CF48E050E0B80186E307
:1022F00092E00E944222009741F028E0F801A6E314
:10230000B2E001900D922A95E1F700913F02892BEE
:1023100069F181E0809313020E94E403909312021A
:102320008093110280911102909112020E94C903C0
:10233000059700F110E00C5B1D4F44E050E066E3B0
:1023400072E0C8010E944222B12C892B51F084E036
:10235000E6E3F2E0D80101900D928A95E1F7BB2403
:10236000B3941092130207C080E0A3CF80911302B0
:102370008111D8CFB12C0E948409F82EE0913F0240
:10238000882309F472C019861A861B861C860E2FB4
:1023900010E00C5B1D4F809131028A3088F540E6D9
:1023A00050E1BE01675F7F4FC8010E945109882339
:1023B00009F44AC047EF5FE0BE01675F7F4FC80185
:1023C0000E945109882309F43FC010923102809184
:1023D0003E0290E044E050E0BE01675F7F4F8C5BBF
:1023E0009D4F0E94422221E020931A02892BF1F492
:1023F000F12C1F2D812F8B292C96EDE00C94BC2104
:1024000080911402909115020E94C903843F91406B
:1024100030F680911A02882359F3FE01399684E040
:10242000DF011D928A95E9F710921A02E0913E02AF
:10243000F0E0EC5BFD4F89859A85AB85BC85808398
:102440009183A283B383D5CF809131028F3F31F046
:102450008F5F809331028A3008F4B9CF0E94E40381
:102460009093150280931402D4CFF0E0EC5BFD4F03
:1024700084E0A5E2B2E001900D928A95E1F785E251
:1024800092E00E94190280932402C0902902D09009
:102490002A02E0902B02F0902C028091160290917B
:1024A0001702A0911802B0911902C816D906EA06BF
:1024B000FB0611F410E09ECFC0921602D0921702D4
:1024C000E0921802F09219020E948409182F8111DB
:1024D000F1CF0E94D803C61AD70AE80AF90AC092B7
:1024E0003202D0923302E0923402F092350282CF6F
:1024F00068EE7EEF90E080E00E942C2260E082E0B7
:1025000090E00E940E2260E083E090E00E940E22A4
:102510001092100210920F0260E084E090E00E949E
:102520000E2264E082E290E00E940E2260E085E0EC
:1025300090E00E940E2260E086E090E00E940E2271
:102540006FEF87E090E00E940E2240E050E0BA0179
:1025500088E090E00E94202260E08DE090E00E9400
:102560000E2240E050E0BA0188E190E00E94202273
:1025700060E087E190E00E940E2240E050E0BA0166
:102580008CE190E00E94202270E060E080E290E028
:102590000E942C2240E050E0BA0188E190E00E94C5
:1025A000202240E050E0BA018FE090E00E9420221B
:1025B00040E050E0BA0183E190E00E9420220895BB
:1025C000CF93C0917502C2FB992790F9981791F0AB
:1025D00080FBC2F9C09375026091740284E090E0C0
:1025E0000E940E226C2F82E290E00E940E2282E076
:1025F0000E94870ACF910895A5E0B0E0E2E0F3E100
:102600000C94A1215C01DC0113968D919C9114978F
:10261000892B39F08C9111969C9189238F3F09F079
:102620001FC62596ECE00C94BD210E94D907182FF7
:10263000682F89819A810E944D0869817A81812F52
:102640000E9413066C01F50182818823E1F08091DC
:102650006702909168020097B1F08C159D0599F082
:10266000FEE08F9FC0011124FC01E65DFE4F20813A
:10267000246020838B5D9E4FDC01CD92DC920E9412
:10268000270A109265027501860120EC3DE54CE2B7
:1026900050E061E08BE991E00E94340C21EC3DE5D3
:1026A00048E250E062E08AE991E00E94340C22ECBA
:1026B0003DE54CE250E063E089E991E00E94340C92
:1026C00023EC3DE54AE250E064E088E991E00E94B5
:1026D000340C850196014CEB5DE561EE70E087E915
:1026E00091E00E94B90C96014DEB5DE560EE70E063
:1026F00086E991E00E94B90C96014EEB5DE562EE31
:1027000070E085E991E00E94B90C96014FEB5DE520
:1027100063EE70E084E991E00E94B90CB6EBCB1651
:10272000BDE5DB0609F40AC108F0C6C0F3EBCF161D
:10273000FDE5DF0609F420C108F0ABC039E7C31698
:10274000D10409F43FC182EBC8168DE5D80609F41F
:102750000AC1C60197558F3F910511F008F052C18B
:102760007601FF24BEE0CB9EF00111248F010B5DAA
:102770001E4FD50112968C91E65DFE4F908180FB35
:1027800090F99083882309F435C10E94E403909363
:10279000560280935502F80182818F5F8283809177
:1027A000650290916602892B838380910E02848357
:1027B0000680F781E02D309731F0D8011C966D919D
:1027C0007C91C80109958EE08E9DF0018F9DF00DE2
:1027D0001124EB5DFE4F858181FF09C190E080E00F
:1027E0009093670280936802D50112968C9188239A
:1027F00009F448C51092AA02B4E0CB16BDE5DB0689
:1028000008F053C1EBEFCE16ECE5DE0630F4C6015E
:1028100082509C45449708F055C10E94FA0C909351
:1028200075028093740282E1C8168CE5D80609F41B
:102830006FC208F0AEC1A9E0CA16ACE5DA0609F429
:1028400045C208F071C1E5E0CE16ECE5DE0609F4FC
:1028500031C208F055C123E0C2162CE5D20609F4B6
:1028600021C208F023C282E0C8168CE5D80609F41C
:1028700011C2609174021091750284E090E00E9490
:102880000E22612F82E290E00E940E220E94080D2B
:10289000E7C094EBC9169DE5D90609F475C0A5EB10
:1028A000CA16ADE5DA0609F054CFF501428163E3BB
:1028B00070E083E392E05DC0B9EBCB16BDE5DB06CB
:1028C00009F469C0A0F4F7EBCF16FDE5DF0609F4C3
:1028D00041C028EBC2162DE5D20609F03ACFD5014A
:1028E00012964C916CE074E085E394E042C03AEBC0
:1028F000C3163DE5D30679F08BEBC8168DE5D806F7
:1029000009F027CFF5018281882309F457C088E0B8
:102910000E941E0B1ECFD50112968C91882309F4BC
:1029200018CF8FE090E00E94140C86E296E00E949F
:10293000140C8FE090E00E94140C0BCFF501828103
:10294000882309F406CF8DE290E00E94140C87E3FF
:1029500092E0F1CFD50112968C91882309F4F9CE3B
:102960008EE290E0F2CFF501428168E372E086E307
:1029700090E00E945C0CEDCED50112964C916EE178
:1029800072E087E390E0F5CFF50142816FE172E0FC
:1029900088E390E0EECFD50112968C91882309F45C
:1029A000D8CE41E068E174E088E094E00E945C0CDD
:1029B00040E068E174E088E094E0DBCF88E00E94CA
:1029C000DC0AC7CED50112968C91882341F082EEA5
:1029D0000E941E0B81EE0E941E0B80EE99CF80EEAE
:1029E0000E94DC0A81EE0E94DC0A82EEE8CF9C2D78
:1029F0008D2DF6CEF801858181FFF6CEC8010E94AB
:102A00000D0AF2CEF4EFCF16FCE5DF0609F43EC066
:102A1000A8F439EDC3163CE5D306A1F18AEDC8163A
:102A20008CE5D80609F43EC098EDC9169CE5D90698
:102A300009F0DACE26E241EE61EE0FC0A6EFCA162B
:102A4000ACE5DA0659F130F127E245EE66EEE7EF44
:102A5000CE16ECE5DE0609F0C7CEC5010E94AA0B32
:102A60008091ED01877009F4DCCDF5018281882326
:102A700009F4D7CD8091750282FFD3CD82E00E9408
:102A8000870ACFCD27E245EE65EEE7CF26E241EE9D
:102A900060EEE3CF27E245EE64EEDFCF26E241EEC3
:102AA00062EEDBCF28E241E0EFCFF6EACF16FDE59C
:102AB000DF0609F4B2CEF0F432E6C3163DE5D306E4
:102AC00009F4ABCE86E1C8168CE5D80609F0EAC356
:102AD000809166028A7A91E009F490E090939C01DB
:102AE00069E2811165E384E791E00E941A040E9483
:102AF000B809B6CFC6018E5A9D45039718F78DCEFB
:102B000080917402806297E0C9169CE5D906F1F1C4
:102B1000809174028061A8E0CA16ACE5DA06B0F1D3
:102B200080917402806432C0BDE0CB16BCE5DB0648
:102B300009F4D6C0A0F4809174028E7FFBE0CF161A
:102B4000FCE5DF0619F1809174028C602CE0C2165E
:102B50002CE5D206D8F0809174028D7F17C03FE03B
:102B6000C3163CE5D30609F4CBC008F4BDC090E120
:102B7000C9169CE5D90609F4C7C0809174028F7B01
:102B8000A1E1CA16ACE5DA0609F073CE80937402AF
:102B900070CEC114BDE5DB0609F4C4C0D8F5FBEF67
:102BA000CF16FCE5DF0609F489C0D0F434E1C31682
:102BB0003CE5D30609F4C4C008F4B0C095E1C916D9
:102BC0009CE5D90609F055CE8091740282FB9927C5
:102BD00090F921E0922790FB82F990FB83F9D6CF00
:102BE000ADEFCA16ACE5DA0609F482C008F46AC093
:102BF000EEEFCE16ECE5DE0609F47EC0809175029C
:102C00008360FFEFCF16FCE5DF0609F032CE80933C
:102C100075022FCE22E6C2162DE5D20609F49BC01E
:102C2000A0F482E0C8168DE5D80609F492C008F435
:102C30007DC060E0A3E0CA16ADE5DA0609F019CE62
:102C40008EE090E00E940E2214CEBEEACB16BDE5C7
:102C5000DB0621F168F490917402892F8E7F90FF3A
:102C60008160F6EACF16FDE5DF0609F48FCF01CECD
:102C70002FEAC2162DE5D20679F130EBC3163DE5F9
:102C8000D30609F0F6CD90917502892F877F93FFC7
:102C90008860BDCF80917402816078CF8091750289
:102CA0008860B5CF80917402826070CF8091740289
:102CB00084606CCF80917402886068CF80917502C7
:102CC0008160A5CF809175028260A1CF0E94080D1E
:102CD0008091740280685ACF80917502877F97CF68
:102CE000809174028B7F52CF80917402877F4ECF88
:102CF000809175028E7F8BCF809175028D7F87CFFB
:102D0000809174028F7E42CF809174028F7D3ECF7E
:102D10000E94080D809174028F7738CF80917402E1
:102D2000837F34CF809175028C7F71CF8091750243
:102D3000982F909591708E7F892B90FB81F967CFAA
:102D40000E94080D90917402892F97FB87F9805893
:102D50001DCF61E075CF90917402892F8F7E94FF13
:102D6000806114CF0E94080D9FEFA4E3BCE0915056
:102D7000A040B040E1F700C000000E94B80380917D
:102D8000750282FB882780F991E089270E94E01272
:102D9000D50112968C9112970D911C91882309F4FC
:102DA00045C0C8010E94D907F82E682FC8010E94AB
:102DB0004D08B8018F2D0E9413060E942E068C012B
:102DC000882EF501D280F580F2943FE0F3228091C5
:102DD000ED018770C1F0ED2CDD20B1F0812F807FF7
:102DE000803421F080E2800F883068F08091750295
:102DF00082FF09C082E00E94870A8091ED018770FE
:102E0000EE24E3948111E12C912E92942FE09222F2
:102E1000FBE0F91508F475C0E92DF0E0EC59FD4D23
:102E20000C94E62181E0B2CF80E0B0CFC8010E94CF
:102E30001A08F82EBECF212F2F70F22E107F19F016
:102E4000F29490EFF922DD20B9F0FF2069F080E2E2
:102E5000800F883010F0811009C080916602F82A36
:102E6000F09266020E94B809802F49C080916502E5
:102E7000F82AF0926502F6CF802F0E94DC0AFF202C
:102E800009F43FC0005E8F2D083010F0811003C0A0
:102E90000E94C80702C00E94C1070E94B80931C041
:102EA000312F3F70C32E107F103219F0C29480EF83
:102EB000C8228820A1F081E0881609F47CC0DD20BA
:102EC00009F486C0FF2009F47CC0D50115968C91C9
:102ED000159780FFC9CF8F7015968C9372C0209183
:102EE000750222FD45C0DD20E1F1CC2039F0809152
:102EF0006602C82AC09266020E94B80980E00E9459
:102F00001E0BE92DE850FF0B349710F40E94A7091F
:102F1000EE20B1F08091ED0180FD12C0D501129636
:102F20001C928595859585950E94A30AC5010E94EE
:102F3000FC128091ED018595859585950E94750A15
:102F400085E0F501DE01119601900D928A95E1F779
:102F500009811A81C8010E941A08B8010E9413064B
:102F600060CB80E00E94DC0ACC2059F28C2D90CFFF
:102F7000DD20A1F090910E028C2D892BF11003C061
:102F80000E94D20ABECFA1E0FA12FACF22FFB9CF37
:102F9000981709F4B6CF80930E02B3CFF11006C094
:102FA0000E94BB078C2D0E94CB0AABCFB1E0FB1671
:102FB00009F4A7CFF5CFDD2031F0E5E0EF1508F4F7
:102FC000A0CF8C2DDDCFF4E0FF1508F49ACFEACF27
:102FD000FF2041F3B9E38B1209C0EFEFF7EE23E0D6
:102FE000E150F0402040E1F700C00000802F0E9437
:102FF000DC0A87CF812F86958695837061F08130BA
:1030000009F07FCFC8019370D11002C090E080E03A
:103010000E944F0476CFC8019370D11002C090E097
:1030200080E00E9465046DCF802FDD2029F00E9492
:103030005D050E947B0465CF0E94A204FACF812F18
:10304000837009F03FC0D1105CCF402F4295469568
:103050004770440F440F802F8F7090E0042E02C001
:10306000880F991F0A94E2F730E020E004FF09C0BE
:103070002FE030E002C0220F331F4A95E2F720957F
:103080003095169516951370123099F078F440919A
:103090000F0250911002113039F0822B932B8423B0
:1030A00095230E94B30A2DCF842B952B822B932B33
:1030B000F8CF822B932B20910F02309110028227A0
:1030C0009327EFCF8695DD2011F0812F8170882323
:1030D00009F417CF402F429546954770440F440F8F
:1030E000802F8F7090E0042E02C0880F991F0A94E1
:1030F000E2F730E020E004FF09C02FE030E002C03A
:10310000220F331F4A95E2F72095309516951695B4
:103110001370123099F078F44091400250914102BE
:10312000113039F0822B932B842395230E946E0A51
:10313000E8CE842B952B822B932BF8CF822B932BCD
:10314000209140023091410282279327EFCF1F70D8
:10315000DD2029F0812F0E94A30A802F11CF802F1C
:103160000E94CB0A812F0E94750ACBCE802F32EFAE
:10317000831699F1381570F090EF8916D1F0A1EF10
:103180008A1691F0DD2009F45BC0F1106DCE812F1D
:103190008F7127C0B3EF8B1639F1E4EF8E12F2CFA7
:1031A0008091750282FD2EC0812F8F71DD20D9F2B2
:1031B00018C0DD2069F0F4E0FF1508F4A2CE1F71FD
:1031C00081E090E002C0880F991F1A95E2F7B8CF0E
:1031D00025E02F1508F495CEF2CF812F8F71D110F5
:1031E000C2CF0E94A30A8DCE90E080E0DD2009F4DA
:1031F0009DCF1F7181E090E002C0880F991F1A9542
:10320000E2F794CFDD2089F01F71812F0E94A30A7D
:103210008091750282FF07C038E0139FC00111241E
:1032200083608093ED01812FDCCF81E00E94870ACB
:1032300081E08F1508F065CE82E00E94870A61CE9A
:10324000FF2059F0893309F0D1CE9FEFA7EEB3E00C
:103250009150A040B040E1F7C7CE812F8F7183CF4E
:1032600085E0F501DE01119601900D928A95E1F756
:10327000F501228189819A812111D7C90E941A08FA
:10328000182FDBC9F6E1CF16FCE5DF0609F080CD8B
:1032900080919C0169E2811165E384E791E00E94DD
:1032A000F00325CC2BE5C2162DE5D20609F4BACDE4
:1032B00078F4C1148CE5D80609F454CD9FEDC916F5
:1032C0009CE5D90609F064CD0E9478120E94CF0FC8
:1032D000ADE5CA16DA0609F452CD08F4A5CDE8EA40
:1032E000CE16EDE5DE0691F353CD1F93CF93DF931A
:1032F0008091BA01807F09F049C08091B70188238D
:1033000009F444C08091EC01D091BB016091B501FA
:103310007091B601A091B801B091B901C62FC72331
:1033200016E0D81799F190E0109711F0CF3F19F4FB
:1033300001968770F6CF189F9001199F300D1124C8
:10334000F901E454FE4F41814713F2CF4081461307
:10335000EFCF42814111ECCF438154814A1B5B0B7B
:10336000483C510528F78091BA018F7080618093A5
:10337000BA01F901EF53FE4F80818F708061808325
:1033800085EB91E00E94FC120E94CF07DF91CF9164
:103390001F910895A1E1B0E0E0EDF9E10C94A321C3
:1033A0008C0185E0F801DE011D9601900D928A9551
:1033B000E1F7F801E28085EBA82E81E0B82E60915C
:1033C000B8017091B9016115710509F426C1909198
:1033D000B5014091B601892F84238F3F09F41DC1A7
:1033E00020813181C380D480F090B701F601E61BC3
:1033F000F70BFF2009F4DCC08091BA01582F507FF1
:10340000E83CF10508F09FC051116BC0FE2C43133E
:1034100014C0921312C0E11010C08F7080618093AD
:10342000BA01C5010E94FC128091BA01F80185839E
:103430008F2D6196EAE00C94BF21C114D10429F0CC
:10344000822F83238F3F09F003C180E0F82FF170B2
:10345000DF2E80FF3CC08091EC014091BB0156E023
:10346000841315C02D873E878D859E850E940D088B
:10347000292F22952F702230F0F0243018F59F70FC
:10348000F1F0F8019581907FD1F4D12C1EC090E02D
:10349000589FF001599FF00D1124E454FE4F6181B3
:1034A000361306C06081261303C06281E6120FC086
:1034B00001968770D5CF9F7011F0882331F3805E1D
:1034C000883018F3C8010E94FC12FD2CB1CFEE2009
:1034D00009F4AECF8091BA0181608093BA01F12CDA
:1034E000A7CF431306C0921304C0F801EE2009F4DD
:1034F00079C0C8010E948308882309F1EE20F9F001
:103500008091BA01803270F02091B5013091B601FE
:1035100038872F831986DB86CA868C87CE0107966B
:103520000E94FC1286E0F801A5EBB1E001900D923B
:103530008A95E1F70E947519FF24F39479CFC801A9
:103540000E94FC12F9CF51110AC085EB91E00E9454
:10355000FC1286E0F50111928A95E9F7C0CF43137A
:103560000FC092130DC0E1100BC0F8018583C80194
:103570000E94FC1286E0F50111928A95E9F758CF76
:10358000C8010E9483088823D1F2EE20C1F2809105
:10359000BA01803238F22091B5013091B6013A83F8
:1035A00029831B82DD82CC828E83CE010196B8CF27
:1035B000E83CF105F8F6FE2CEE2009F243131FC09B
:1035C00092131DC08091BA0180FD10C0982F907F8A
:1035D00069F0F8018583903F31F0982F907F905FDC
:1035E0008F70892B8583C8010E94FC1286E0F80148
:1035F000A5EBB1E001900D928A95E1F719CFC801D2
:103600000E94830881118ECF8091BA0181608093DE
:10361000BA01C8010E94FC120BCFEE2009F48FCF33
:10362000C8010E948308F82E882309F488CF86E019
:10363000F801A5EBB1E001900D928A95E1F7809138
:10364000B5019091B6010E940D080E947519F0CE47
:1036500081E08E25FBCEA7E1B0E0E1E3FBE10C9435
:10366000AA214B8B5C8B6D8B7E8B8F8B61111092A3
:1036700065021A8A198A85E0FE017396DE011D969D
:1036800001900D928A95E1F786E0FE013D96DE01FC
:10369000179601900D928A95E1F7CE0107960E9448
:1036A000CA19882359F016E08091EC019091BB0172
:1036B000891343C06796E3E00C94C62186E0FE01BF
:1036C0003796DE01119601900D928A95E1F78A8571
:1036D0009B85892B41F38F81988589238F3F19F32F
:1036E0002091BB0130E0C901019687709927409174
:1036F000EC014817190671F40E94080D1092BB01E5
:103700001092EC0186E0E5EBF1E0DF011D928A9575
:10371000E9F7C9CF96E0929FD001939FB00D112495
:10372000A454BE4FFE01319601900D929A95E1F797
:103730008093BB010E94CF07B6CF819FC0011124A7
:1037400084549E4F0E94CA19882309F4B3CF8091F4
:10375000EC0190E00196877099278093EC01A4CF4B
:103760001F920F920FB60F9211242F933F934F93F6
:103770005F936F937F938F939F93AF93BF93CF93F9
:10378000DF93EF93FF93D091E900DF708091EC001D
:10379000C82FC17080FDC0E81092E9008091F00050
:1037A000877F8093F00078940E941E0D1092E900AC
:1037B0008091F00088608093F000CD2BCF70C09393
:1037C000E900FF91EF91DF91CF91BF91AF919F9170
:1037D0008F917F916F915F914F913F912F910F90BA
:1037E0000FBE0F901F9018951F920F920FB60F9259
:1037F00011242F933F934F935F936F937F938F93F6
:103800009F93AF93BF93EF93FF938091E10082FF6B
:1038100009C08091E20082FF05C08091E1008B7FAA
:103820008093E1008091DA0080FF24C08091D8006D
:1038300080FF20C08091DA008E7F8093DA00809133
:10384000D90080FF9DC080E189BD82E189BD09B4B6
:1038500000FEFDCF81E080939E028091790281116C
:1038600009C00E9430020E94FB028091E200846045
:103870008093E2008091E10080FF17C08091E20018
:1038800080FF13C08091E2008E7F8093E2008091E0
:10389000E20080618093E2008091D8008062809392
:1038A000D80019BC85E080939E028091E10084FFDE
:1038B0002BC08091E20084FF27C080E189BD82E1B6
:1038C00089BD89B5982F917080FFFBCF8091D8007A
:1038D0008F7D8093D8008091E1008F7E8093E100FE
:1038E0008091E2008F7E8093E2008091E20081600F
:1038F0008093E20080919F02882309F447C084E00E
:1039000080939E0280919E028091E10083FF27C0F8
:103910008091E20083FF23C08091E100877F809344
:10392000E10082E080939E0210929F028091E1006C
:103930008E7F8093E1008091E2008E7F8093E20091
:103940008091E20080618093E20042E060E080E0EC
:103950000E94C9028091F00088608093F000FF917E
:10396000EF91BF91AF919F918F917F916F915F91F7
:103970004F913F912F910F900FBE0F901F90189570
:1039800019BC10929E021092790274CF8091E300CC
:1039900087FD93E090939E02B5CF78941F921FB657
:1039A0001F9211248F939F93AF93BF9380917002C6
:1039B00090917102A0917202B09173020196A11DC3
:1039C000B11D8093700290937102A0937202B09324
:1039D0007302BF91AF919F918F911F901FBE1F9057
:1039E00018951F921FB61F9211248F939F93AF9328
:1039F000BF9380916F02811113C0809170029091EA
:103A00007102A0917202B09173024196A11DB11D85
:103A10008093700290937102A0937202B09373022C
:103A2000BF91AF919F918F911F901FBE1F901895CE
:103A3000CDB7DEB760970FB6F894DEBF0FBECDBF2F
:103A400085B7806885BF85B7806885BF84B7877F65
:103A500084BF0FB6F894A895809160008861809328
:103A60006000109260000FBE80E890E00FB6F894FE
:103A700080936100909361000FBE87EB95E0909377
:103A80007301809372010E9430020E94FB028091B8
:103A9000E20084608093E200789480919E02882303
:103AA000A1F01091E9001F709091EC00892F8170B6
:103AB00090FD80E8182B1092E9008091E80083FDCA
:103AC0000E941E0D1F701093E90082E084BD93E0F8
:103AD00095BD9AEF97BD80936E00109232021092BE
:103AE000330210923402109235020E9484098093AE
:103AF00018010E94840981110E94392080911801C7
:103B00008091180194E0811190E090933F0284E04D
:103B1000891B80933E0284E90E94B90586E60E94D3
:103B2000B90587E90E94B90586EC0E94B9050BE644
:103B300011E0D8018D918D018F3F11F00E94B905E0
:103B4000B1E001371B07A9F788E0E4E4F2E0DF0108
:103B5000282F1D922A95E9F7E6E3F2E0DF011D9296
:103B60008A95E9F790E080E00E940822883E9E4F07
:103B700011F00E94781282E090E00E94002280936F
:103B80004C020E94FA0C90937502809374020E947A
:103B90000911EFE3FCE93197F1F700C000000E9442
:103BA00009110E948409E4E08111E0E0F0E0EC5B9F
:103BB000FD4F808181FF08C06FEF7FEF90E080E0D4
:103BC0000E942C220E94B80383E090E00E94002211
:103BD00090E00E94B30A0E948409811102C00E94F1
:103BE0003C2089E191E090936C0280936B0228E184
:103BF000C22ED12C3CE4A32E32E0B32E95E5892EC3
:103C000092E0992E80919E0200E112E1853009F444
:103C10007EC00E9409110DE412E084E4E82E82E0E7
:103C2000F82ED701F80191918D918E169F0609F417
:103C300078C09817C1F30E948409282E712CD701EF
:103C40006D907D01F80131908F01361429F13624F1
:103C5000512C44244394832D8421B1F02220A1F0DF
:103C60005C867D8691E0862D842109F490E09E8714
:103C70000E94E4038160782F988B8F874C855D8547
:103C80006E8588890E942B1B5394440CF6E05F12CA
:103C9000E2CFF80131976082739428E07212CFCF9F
:103CA0000E94D8035EC080919E02843011F1109270
:103CB0006F02F0E40FB6F894A895C09260000FBEB2
:103CC000F093600083B7817F846083BF83B7816096
:103CD00083BF7894889583B78E7F83BF0FB6F8949F
:103CE000A8958091600088618093600010926000C8
:103CF0000FBE80919D02882351F00E940911E4E4D7
:103D0000F2E0819181113BC1AE16BF06D1F78091DF
:103D10009E02853009F4C7CF0E94080D0E94A709B2
:103D200078CF981388CF0E94E4038C0180914202DF
:103D30009091430208171907A1F08FEF8F838887AE
:103D400019860E94E4038160782F9B878A874F81C0
:103D5000588569858B850E942B1B10934302009325
:103D600042020E9484098823F1F0009167021091B9
:103D7000680201151105B9F0809155029091560223
:103D80000E94C903893C910570F04EE0049FC00178
:103D90001124FC01E65DFE4F208122FD04C08B5DF5
:103DA0009E4F0E94270A86E0EFE5F2E0DE011196C1
:103DB00001900D928A95E1F71092610210926202D1
:103DC00010926302109264028B819C81892B09F40A
:103DD0004AC080915D0290915E020E94C9039C01DD
:103DE00090915902992309F4E5C025313105D8F1A4
:103DF0009F3F19F09F5F909359021B81112359F047
:103E00000E943D059FEF11160CF491E0899F802DD3
:103E10001124809361021C81112359F00E943D05F9
:103E20009FEF11160CF491E0899F802D112480934F
:103E30006202309161023323B1F0209162022223A9
:103E400091F045EB3403C0011124992309F487C094
:103E50009093610245EB240390011124332309F46C
:103E600082C0309362028D819E81892B09F449C002
:103E700080915B0290915C020E94C9039C01909129
:103E80005802992309F491C021353105D0F19F3FA3
:103E900019F09F5F909358021D81112359F00E94E1
:103EA0001B059FEF11160CF491E0899F802D1124C2
:103EB000809363021E81112359F00E941B059FEF1E
:103EC00011160CF491E0899F802D112480936402D7
:103ED000309163023323A9F020916402222389F0F8
:103EE00045EB3403C0011124992309F440C0909399
:103EF000630245EB2403900111243323E1F1309355
:103F0000640246E050E0BE016F5F7F4F8FE592E0B4
:103F10000E944222892B61F4809161029091620299
:103F2000892B90916302892B90916402892B11F067
:103F30000E947B0486E0FE013196AFE5B2E001907D
:103F40000D928A95E1F70E94A7099091570289176F
:103F500009F458CE809357020E94D8034FCE81E0D7
:103F60008093610277CF81E0809362027CCF81E011
:103F700080936302BECF81E080936402C2CF09BD0B
:103F800019BD09B400FEFDCF8091D8008F7D8093CC
:103F9000D8008091E00082608093E0008091E00092
:103FA00081FDFCCF0E94080DB2CE2B30310508F008
:103FB00070CFA7CF2B30310508F01CCF54CF8EE146
:103FC0004A9B02C08150E1F74A9BFECF08955A9860
:103FD00080E28A95F1F75A9A0895FC013BE03A9500
:103FE000F1F798E020E080E031E040E14A95F1F718
:103FF000880F4A9B02C08160232742E04A95F1F76F
:10400000000040E14A95F1F7915079F790E19A95D7
:10401000F1F799B132E03A95F1F7000040E14A95A5
:10402000F1F792FB992790F992272081920F9083C4
:104030000895A1E0B0E0EFE1F0E20C94A72119822D
:104040008C017C01E60EF11C0E151F0541F481E088
:104050009981911180E02196E6E00C94C3210E94A1
:10406000DF1FCE0101960E94ED1FF80181938F01A1
:10407000EBCF529A5A9A089552985A9AEA9AE9E6D8
:10408000F0E080818F7C808308956150770B91E010
:1040900001C0990F6A95EAF720E031E0911108C05C
:1040A000222391F05A9A80E28A95F1F75A9808955E
:1040B000492F482339F05A9A232740E24A95F1F7CD
:1040C0009695ECCF5A98F9CF5A98EDCFFF920F936F
:1040D0001F93CF93DF93EC018C01060F111DC017C6
:1040E000D10729F4CDB7DEB7E5E00C94C421F990EF
:1040F0000E94E71F68E08F2D0E944520F0CF1F929D
:104100000F920FB60F9211240F931F932F933F938B
:104110004F935F936F937F938F939F93AF93BF93CF
:10412000EF93FF93CF93DF930F92CDB7DEB7198252
:104130000E94DF1FCE0101960E94ED1F082F0695F9
:1041400006950695282F22952570902F9570290F9A
:10415000922F937026952695920F982797708981B4
:10416000982B09F05CC0043008F059C080E18A95B2
:10417000F1F75A9A529A82E08A95F1F700C05A985C
:1041800088E0089F80011124D801A050BF4F1696E7
:10419000ED91FC9117973097A9F0609165017091AE
:1041A000660114962D913C911597260F371F119695
:1041B0008D919C911297680F791F13964C911397CC
:1041C0008C910995F801E050FF4F6381662351F00F
:1041D000209165013091660184819581820F931F42
:1041E0000E9466200E94E71F80E18A95F1F75A98A5
:1041F00052985A9A80E18A95F1F7F801E050FF4F02
:104200006081662351F020916501309166018181C2
:104210009281820F931F0E9419200E94DF1F0F902E
:10422000DF91CF91FF91EF91BF91AF919F918F91CE
:104230007F916F915F914F913F912F911F910F91BE
:104240000F900FBE0F901F9018950F931F93CF9351
:10425000DF93EC0104970CF04CC0F894529A5A98F2
:1042600085E08A95F1F700009C2F969595708C2F2C
:104270008570980F892F83709695969523E0CC0FC3
:10428000DD1F2A95E1F7980F8E01092B0E94E71F89
:1042900000C068E0802F0E94452080E18A95F1F7F8
:1042A00052985A9A4A9B1EC087E090E04A991CC0D7
:1042B000FE01E050FF4F63816623F9F02091650114
:1042C0003091660184819581820F931F0E9419208D
:1042D000811113C0529A5A9A7894DF91CF911F910D
:1042E0000F91089500C0DECF019729F4529A5A9A8F
:1042F000789480E0F2CF00C0D9CF0E94DF1F80E227
:104300008A95F1F75A98529A80E18A95F1F7C05050
:10431000DF4F6881662351F020916501309166017D
:1043200089819A81820F931F0E9466200E94E71F55
:10433000789481E0D2CF2F923F924F925F926F920A
:104340007F928F929F92AF92BF92CF92DF92EF9225
:10435000FF920F931F93CF93DF93CDB7DEB7CA1BA6
:10436000DB0B0FB6F894DEBF0FBECDBF09942A88D1
:10437000398848885F846E847D848C849B84AA8479
:10438000B984C884DF80EE80FD800C811B81AA8106
:10439000B981CE0FD11D0FB6F894DEBF0FBECDBFD1
:1043A000ED01089597FB072E16F4009407D077FDD2
:1043B00009D00E94EC2107FC05D03EF49095819530
:1043C0009F4F0895709561957F4F0895EE0FFF1FE1
:1043D0000590F491E02D0994AA1BBB1B51E107C085
:1043E000AA1FBB1FA617B70710F0A61BB70B881F85
:1043F000991F5A95A9F780959095BC01CD01089514
:10440000F999FECF92BD81BDF89A992780B508959C
:10441000A8E1B0E042E050E00C943422262FF99954
:10442000FECF92BD81BDF89A019700B4021639F013
:104430001FBA20BD0FB6F894FA9AF99A0FBE0895E4
:104440000396272F0E940F220E940E22252F0E94E2
:104450000F22242F0C940F220196272F0E940F2247
:104460000C940E22DC01CB01FC01F999FECF06C0B1
:10447000F2BDE1BDF89A319600B40D924150504022
:10448000B8F70895FB01DC0104C08D9101908019FB
:1044900021F441505040C8F7881B990B0895FB0147
:1044A000DC0102C001900D9241505040D8F70895B0
:1044B000F894FFCFFD0D250EBD0F250EBD0F580E34
:1044C000790EBD0F760F830F1B171B175017501750
:1044D000FA171418811781171F18A718B618B618DD
:1044E00000000001000000000000000401000000C6
:1044F000040500000000000001B5031109F008EBFD
:1045000008E608B4030000000000000000E50F000A
:1045100000000001818283E200E900EA00B500B6F4
:1045200000B700CD008301CC008A019201940121E3
:1045300002230224022502260227022A02B300B423
:10454000006F0070002402946697C6F4F5F6F73108
:02455000330036
:00000001FF
